:10064C000A27C0F9A4B0999282F880900621000084
:10065C00000000000A310805090D060A0E070B0FF1
:10066C0041000C0041000B00C1014200002710C1E9
:10067C0080410006004100070041000800420009CB
:02068C0000006C
:10068F007580FF7590FF1204A690000CEFF012001A
:06069F000312034D80F080
:04034D00AB07AA064A
:10035100900000E0B50209A3E0B50304C2008002E9
:10036100D20030004E7C007D0AAF03AE021205F7C9
:10037100900002EDF07C007D64AF03AE021205F740
:100381007E007F0ACFCDCFCECCCE1205F7A3EFF002
:100391007C007D64AF03AE021205F77C007D0A127A
:1003A10005F7A3EDF07C037DE8AF03AE021205F77C
:1003B100A3EFF0AF03900000EAF0A3EFF07580FF28
:1003C1007590FF900005E0FFC3940A74809480400B
:1003D1000302047DEF603CC293900002E02427F801
:1003E100E6F580D2937580FFC292A3E02427F8E658
:1003F100F580D2927580FFC291A3E02427F8E6F53B
:1004010080D2917580FFC290A3E02427F8E6F580A1
:100411000204A0900004E0FF602DC293900002E06E
:100421002427F8E6F580D2937580FFC292A3E024D9
:1004310027F8E6F580D2927580FFC29174272FF8D4
:10044100E6F580D291805A900003E0FF601EC293CE
:10045100900002E02427F8E6F580D2937580FFC270
:100461009274272FF8E6F580D2928035C2939000DE
:1004710002E02427F8E6F580D2938025C2937580A7
:10048100CED2937580FFC292758086D2927580FF1D
:10049100C2917580C1D2917580FFC2907580C0D222
:0404A100907580FFD3
:0104A5002234
:1004A60075A00FC201AFA0EF640F6022900007E5B0
:1004B600A0F0AFA0EF640F70037F7B2275A0F0AFB2
:1004C600A0EF64F06006900008E5A0F0D20175A0E8
:1004D6000FAFA0EF640F70F9900007E0FF7E006495
:1004E6000E7006900006F08027EF640D4E700790A0
:1004F600000604F0801AEF640B4E70089000067434
:1005060002F0800CEF64074E70069000067403F04C
:10051600900008E0FD7C0064E07006900006E0FFB5
:1005260022ED64D04C7008900006E02404FF22906F
:100536000008E0FD7C0064B07008900006E0240826
:10054600FF22ED64704C7008900006E0240CFF2238
:020556007F7BA9
:010558002280
:1000030020010302034490000CE0B41000400302FB
:10001300034490001CF82828730202AE02029402E3
:10002300027A0202600202CB02008402011A020178
:10003300B002004C0200B602014C0201E202024689
:100043000200E802017E02021490000BE0FFD39449
:1000530000748094804025D3EF940374809480507F
:100063001B900009E0FEA3E0FF7C007D0A1205E57A
:10007300900009EEF0A3EFF0A3E004F0C201020345
:100083004490000BE0D3940374809480502090003C
:1000930009E0FEA3E0FF7C007D0A1205E5EF2401E1
:1000A300FFE43E900009F0A3EFF0A3E004F0C201E7
:1000B30002034490000BE0D3940374809480502097
:1000C300900009E0FEA3E0FF7C007D0A1205E5EF46
:1000D3002402FFE43E900009F0A3EFF0A3E004F054
:1000E300C20102034490000BE0D394037480948014
:1000F3005020900009E0FEA3E0FF7C007D0A12057A
:10010300E5EF2403FFE43E900009F0A3EFF0A3E042
:1001130004F0C20102034490000BE0D39403748003
:1001230094805020900009E0FEA3E0FF7C007D0A4C
:100133001205E5EF2404FFE43E900009F0A3EFF07D
:10014300A3E004F0C20102034490000BE0D3940344
:10015300748094805020900009E0FEA3E0FF7C00AF
:100163007D0A1205E5EF2405FFE43E900009F0A3A4
:10017300EFF0A3E004F0C20102034490000BE0D3CC
:100183009403748094805020900009E0FEA3E0FF64
:100193007C007D0A1205E5EF2406FFE43E9000098A
:1001A300F0A3EFF0A3E004F0C20102034490000BBC
:1001B300E0D39403748094805020900009E0FEA360
:1001C300E0FF7C007D0A1205E5EF2407FFE43E9083
:1001D3000009F0A3EFF0A3E004F0C201020344908E
:1001E300000BE0D39403748094805020900009E0C6
:1001F300FEA3E0FF7C007D0A1205E5EF2408FFE47F
:100203003E900009F0A3EFF0A3E004F0C201020363
:100213004490000BE0D394037480948050209000AA
:1002230009E0FEA3E0FF7C007D0A1205E5EF240947
:10023300FFE43E900009F0A3EFF0A3E004F0C20155
:10024300020344E4F521F522F523F524F525F526EB
:10025300900009F0A3F0A3F090000D806690000DCC
:100263007401F0900009E0F521A3E0F522E4900089
:1002730009F0A3F0A3804C90000D7402F0900009E4
:10028300E0F521A3E0F522E4900009F0A3F0A380B8
:100293003290000D7403F0900009E0F521A3E0F51E
:1002A30022E4900009F0A3F0A3801890000D7404D9
:1002B300F0900009E0F521A3E0F522E4900009F0B5
:1002C300A3F0A3F0C2018079900009E0F523A3E035
:1002D300F52490000DE0FF7E006401700EE52225F9
:1002E30024F526E5213523F525803FEF64024E7082
:1002F3000FC3E5229524F526E5219523F525802ACC
:10030300EF64034E700DAC23AD24AE21AF22120572
:10031300E5801390000DE06404700FAC23AD24AEB0
:1003230021AF221205F78E258F26E490000DF09061
:10033300000B7404F0C201900009E525F0A3E52643
:09034300F0900009E0FEA3E0FFC8
:01034C00228E
:030000000205599D
:0C055900787FE4F6D8FD75813A0205A019
:1005E500EF8DF0A4A8F0CF8CF0A428CE8DF0A42E2A
:0205F500FE22E4
:1005F700BC000BBE0029EF8DF084FFADF022E4CCE8
:10060700F875F008EF2FFFEE33FEEC33FCEE9DECB0
:10061700984005FCEE9DFE0FD5F0E9E4CEFD22EDF6
:10062700F8F5F0EE8420D21CFEADF075F008EF2F40
:10063700FFED33FD4007985006D5F0F222C398FD31
:050647000FD5F0EA22CE
:1005650002068FE493A3F8E493A34003F68001F217
:1005750008DFF48029E493A3F85407240CC8C33397
:10058500C4540F4420C8834004F456800146F6DF66
:10059500E4800B010204081020408090064CE47EA4
:1005A500019360BCA3FF543F30E509541FFEE4935B
:1005B500A360010ECF54C025E060A840B8E493A322
:1005C500FAE493A3F8E493A3C8C582C8CAC583CA4D
:1005D500F0A3C8C582C8CAC583CADFE9DEE780BE05
:01068E00006B
:00000001FF
