:100641000A27C0F9A4B0999282F88090062100008F
:10065100000000000A310805090D060A0E070B0FFC
:1006610041000C0041000B00C1014200002710C1F4
:1006710080410006004100070041000800420009D6
:02068100000077
:100684007580FF7590FF12049B90000CEFF0120030
:060694000312034280F096
:04034200AB07AA0655
:10034600900000E0B50209A3E0B50304C2008002F4
:10035600D20030004E7C007D0AAF03AE021205ECDF
:10036600900002EDF07C007D64AF03AE021205EC56
:100376007E007F0ACFCDCFCECCCE1205ECA3EFF018
:100386007C007D64AF03AE021205EC7C007D0A1290
:1003960005ECA3EDF07C037DE8AF03AE021205EC9D
:1003A600A3EFF0AF03900000EAF0A3EFF07580FF33
:1003B6007590FF900005E0FFC3940A748094804016
:1003C60003020472EF603CC293900002E02427F817
:1003D600E6F580D2937580FFC292A3E02427F8E663
:1003E600F580D2927580FFC291A3E02427F8E6F546
:1003F60080D2917580FFC290A3E02427F8E6F580AD
:10040600020495900004E0FF602DC293900002E084
:100416002427F8E6F580D2937580FFC292A3E024E4
:1004260027F8E6F580D2927580FFC29174272FF8DF
:10043600E6F580D291805A900003E0FF601EC293D9
:10044600900002E02427F8E6F580D2937580FFC27B
:100456009274272FF8E6F580D2928035C2939000E9
:1004660002E02427F8E6F580D2938025C2937580B2
:10047600CED2937580FFC292758086D2927580FF28
:10048600C2917580C1D2917580FFC2907580C0D22D
:04049600907580FFDE
:01049A00223F
:10049B0075A00FC201AFA0EF640F6022900007E5BB
:1004AB00A0F0AFA0EF640F70037F7B2275A0F0AFBD
:1004BB00A0EF64F06006900008E5A0F0D20175A0F3
:1004CB000FAFA0EF640F70F9900007E0FF7E0064A0
:1004DB000E7006900006F08027EF640D4E700790AB
:1004EB00000604F0801AEF640B4E7008900006743F
:1004FB0002F0800CEF64074E70069000067403F058
:10050B00900008E0FD7C0064E07006900006E0FFC0
:10051B0022ED64D04C7008900006E02404FF22907A
:10052B000008E0FD7C0064B07008900006E0240831
:10053B00FF22ED64704C7008900006E0240CFF2243
:02054B007F7BB4
:01054D00228B
:1000030020010302033990000CE0B4100040030206
:10001300033990001CF82828730202A30202890204
:10002300026F0202550202C002007902010F0201AF
:10003300A502004C0200AB0201410201D702023BC0
:100043000200DD02017302020990000BE0D3940366
:1000530074809480501B900009E0FEA3E0FF7C00B5
:100063007D0A1205DA900009EEF0A3EFF0A3E00495
:10007300F0C20102033990000BE0D394037480941F
:10008300805020900009E0FEA3E0FF7C007D0A126F
:1000930005DAEF2401FFE43E900009F0A3EFF0A39B
:1000A300E004F0C20102033990000BE0D39403741F
:1000B3008094805020900009E0FEA3E0FF7C007D47
:1000C3000A1205DAEF2402FFE43E900009F0A3EFE1
:1000D300F0A3E004F0C20102033990000BE0D394D3
:1000E30003748094805020900009E0FEA3E0FF7C1D
:1000F300007D0A1205DAEF2403FFE43E900009F0C5
:10010300A3EFF0A3E004F0C20102033990000BE077
:10011300D39403748094805020900009E0FEA3E000
:10012300FF7C007D0A1205DAEF2404FFE43E900011
:1001330009F0A3EFF0A3E004F0C201020339900039
:100143000BE0D39403748094805020900009E0FE68
:10015300A3E0FF7C007D0A1205DAEF2405FFE43EED
:10016300900009F0A3EFF0A3E004F0C20102033909
:1001730090000BE0D3940374809480502090000986
:10018300E0FEA3E0FF7C007D0A1205DAEF2406FF00
:10019300E43E900009F0A3EFF0A3E004F0C20102F3
:1001A300033990000BE0D394037480948050209023
:1001B3000009E0FEA3E0FF7C007D0A1205DAEF24CC
:1001C30007FFE43E900009F0A3EFF0A3E004F0C2C0
:1001D3000102033990000BE0D394037480948050A0
:1001E30020900009E0FEA3E0FF7C007D0A1205DAFF
:1001F300EF2408FFE43E900009F0A3EFF0A3E0042E
:10020300F0C20102033990000BE0D394037480948D
:10021300805020900009E0FEA3E0FF7C007D0A12DD
:1002230005DAEF2409FFE43E900009F0A3EFF0A301
:10023300E004F0C201020339E4F521F522F523F5C8
:1002430024F525F526900009F0A3F0A3F090000D06
:10025300806690000D7401F0900009E0F521A3E0A1
:10026300F522E4900009F0A3F0A3804C90000D74F4
:1002730002F0900009E0F521A3E0F522E4900009E3
:10028300F0A3F0A3803290000D7403F0900009E016
:10029300F521A3E0F522E4900009F0A3F0A3801870
:1002A30090000D7404F0900009E0F521A3E0F5221D
:1002B300E4900009F0A3F0A3F0C201807990000953
:1002C300E0F523A3E0F52490000DE0FF7E00640138
:1002D300700EE5222524F526E5213523F525803FFB
:1002E300EF64024E700FC3E5229524F526E52195B0
:1002F30023F525802AEF64034E700DAC23AD24AEA5
:1003030021AF221205DA801390000DE06404700F10
:10031300AC23AD24AE21AF221205EC8E258F26E44B
:1003230090000DF090000B7404F0C201900009E5F9
:0E03330025F0A3E526F0900009E0FEA3E0FF10
:010341002299
:0300000002054EA8
:0C054E00787FE4F6D8FD75813A0205952F
:1005DA00EF8DF0A4A8F0CF8CF0A428CE8DF0A42E35
:0205EA00FE22EF
:1005EC00BC000BBE0029EF8DF084FFADF022E4CCF3
:1005FC00F875F008EF2FFFEE33FEEC33FCEE9DECBC
:10060C00984005FCEE9DFE0FD5F0E9E4CEFD22ED01
:10061C00F8F5F0EE8420D21CFEADF075F008EF2F4B
:10062C00FFED33FD4007985006D5F0F222C398FD3C
:05063C000FD5F0EA22D9
:10055A00020684E493A3F8E493A34003F68001F22D
:10056A0008DFF48029E493A3F85407240CC8C333A2
:10057A00C4540F4420C8834004F456800146F6DF71
:10058A00E4800B0102040810204080900641E47EBA
:10059A00019360BCA3FF543F30E509541FFEE49366
:1005AA00A360010ECF54C025E060A840B8E493A32D
:1005BA00FAE493A3F8E493A3C8C582C8CAC583CA58
:1005CA00F0A3C8C582C8CAC583CADFE9DEE780BE10
:010683000076
:00000001FF
