:100314000102040810204080C0F9A4B0999282F828
:030324008090FFC7
:1001B1007F5875A0EFE5A0B4EE027F01E5A0B4ED94
:1001C100027F04E5A0B4EB027F07E5A0B4E7027F5C
:1001D1001775A0DFE5A0B4DE027F02E5A0B4DD0261
:1001E1007F05E5A0B4DB027F08E5A0B4D702E4FFF8
:1001F10075A0BFE5A0B4BE027F03E5A0B4BD027F38
:1002010006E5A0B4BB027F09E5A0B4B7027F18756B
:10021100A07FE5A0B47E027F0CE5A0B47D027F0D36
:0E022100E5A0B47B027F0EE5A0B477027F0F4C
:01022F0022AC
:100327007F0774072FF8E6FE74082FF8A606DFF29A
:0103370022A3
:100338007F0774112FF8E6FE74122FF8A606DFF275
:010348002292
:100349007F0774252FF8E6FE74262FF8A606DFF23C
:010359002281
:1002FD007F0874072FF8E4F674112FF8E4F67425CF
:06030D002FF8E4F6DFEC1E
:0103130022C7
:1002DC007F07EF601B2426F8E66003B40A03760A56
:1002EC001F74262FF8E660EA640A60E6E4FF80E2F9
:0102FC0022DF
:10000E001201B1AB07EBD3940940030200A0E52F18
:10001E00703E1203278B08120349850826E4FBAFB6
:10002E000BFE7C037DE8120230AC06AD07E50A75C7
:10003E00F064A42DFDEC35F0FCE50975F00AA42D55
:10004E00FFE5F03CFE7C00EF2508F511EC3EF510C7
:10005E00E52F603E1203388B12120349851226E4F7
:10006E00FBAF15FE7C037DE8120230AC06AD07E552
:10007E001475F064A42DFDEC35F0FCE51375F00A53
:10008E00A42DFFE5F03CFE7C00EF2512F51BEC3EA7
:10009E00F51AEBC3940C4031EBD3940F502BE52F94
:1000AE007027120349BB0C03752F0175260ABB0D71
:1000BE0003752F0275260ABB0E03752F0375260ACC
:1000CE00BB0F03752F0475260ABB17031202FDEB37
:1000DE00641860030201A01202FDE52FB4010CE5C5
:1000EE0011251BF51DE510351AF51CE52FB4020D73
:1000FE00C3E511951BF51DE510951AF51CE52FB4FA
:10010E00030FAC1AAD1BAE10AF111202308E1C8F46
:10011E001DE52FB4040FAC1AAD1BAE10AF111202B9
:10012E00428E1C8F1DAE1CAF1D7C277D101202420D
:10013E008F2AAE1CAF1D7C037DE81202427C007D2F
:10014E000A1202428D29AE1CAF1D7C037DE81202FD
:10015E00427E007F64CFCDCFCECCCE1202428F280E
:10016E00AE1CAF1D7C007D641202427E007F0ACF62
:10017E00CDCFCECCCE1202428F27AE1CAF1D7C004F
:10018E007D0A1202428D26E4F510F511F51AF51BC3
:10019E00F52F1202DCEBC3945850071201B1AB07D6
:0201AE0080F3DC
:0101B000222C
:03000B0002029757
:10029700C0E0C083C082C0D075D000C000758CECB0
:1002A700758A787580FFE52E90031493F580D294B4
:1002B700C2947426252EF8E690031C93F580052E2C
:1002C700E52EC394084003752E00D000D0D0D0820D
:0502D700D083D0E032ED
:10035A00438901758CEC758A78D2AFD2A9D28C22E6
:0B03760012035A12000E1202DC80F885
:0300000002036A8E
:0C036A00787FE4F6D8FD75813002037640
:10023000EF8DF0A4A8F0CF8CF0A428CE8DF0A42EE2
:02024000FE229C
:10024200BC000BBE0029EF8DF084FFADF022E4CCA0
:10025200F875F008EF2FFFEE33FEEC33FCEE9DEC69
:10026200984005FCEE9DFE0FD5F0E9E4CEFD22EDAF
:10027200F8F5F0EE8420D21CFEADF075F008EF2FF9
:10028200FFED33FD4007985006D5F0F222C398FDEA
:050292000FD5F0EA2287
:00000001FF
